:10000000F8FF0020110400009BDE00009BDE0000D2
:100010009BDE00009BDE00009BDE00009BDE0000FC
:100020009BDE00009BDE00009BDE00009BDE0000EC
:100030009BDE00009BDE00009BDE00009BDE0000DC
:100040005D1D01009BDE00009BDE00009BDE0000CA
:100050009BDE00009BDE00009BDE00009BDE0000BC
:100060009BDE00009BDE00009BDE00009BDE0000AC
:100070009BDE00009BDE00009BDE00009BDE00009C
:100080009BDE00009BDE00009BDE00009BDE00008C
:100090009BDE00009BDE00009BDE00009BDE00007C
:1000A0009BDE00009BDE00009BDE00009BDE00006C
:1000B0009BDE00009BDE00009BDE00009BDE00005C
:1000C0009BDE00009BDE00009BDE00009BDE00004C
:1000D0009BDE00009BDE00009BDE00009BDE00003C
:1000E0009BDE00009BDE00009BDE00009BDE00002C
:1000F0009BDE00009BDE00009BDE00009BDE00001C
:100100009BDE00009BDE00009BDE00009BDE00000B
:100110009BDE00009BDE00009BDE00009BDE0000FB
:100120009BDE00009BDE00009BDE00009BDE0000EB
:100130009BDE00009BDE00009BDE00009BDE0000DB
:100140009BDE00009BDE00009BDE00009BDE0000CB
:100150009BDE00009BDE00009BDE00009BDE0000BB
:100160009BDE00009BDE00009BDE00009BDE0000AB
:100170009BDE00009BDE00009BDE00009BDE00009B
:100180009BDE00009BDE00009BDE00009BDE00008B
:100190009BDE00009BDE00009BDE00009BDE00007B
:1001A0009BDE0000611D01009BDE00009BDE000065
:1001B0009BDE00009BDE00009BDE00009BDE00005B
:1001C0009BDE00009BDE00009BDE00009BDE00004B
:1001D0009BDE00009BDE00009BDE00009BDE00003B
:1001E0009BDE00009BDE00009BDE00009BDE00002B
:10040000FFFFFFFFFFFFFFFFFFFFFFFFFEFFFFFFFD
:1004100062B612F09BFEFEE702000A0012001A000C
:1004200022002A0032003A0042004A0052005A00DC
:10043000620000000200120022003200420052005E
:100440006200000004000100000000000000000045
:100450000000040001000100000000000000000096
:10046000050002000100010000000000000005007E
:10047000030002000100010000000000060004006B
:100480000300020001000100000006000500040056
:10049000030002000100010006000600060006003D
:1004A00006000600060006000700080009000A0012
:1004B0000B000B000600080009000A000B000B00EF
:1004C0000C00070009000A000B000B000C000C00D8
:1004D00007000A000B000B000C000C000C000800C9
:1004E0000B000B000C000C000C000C0008000B00B3
:1004F0000C000C000C000C000C00000002000100BD
:1005000000000000000000000000040002000000E5
:1005100000000000000000000500020000000000D4
:1005200000000000000006000400020000000000BF
:1005300000000000060006000300020000000000AA
:100540000000060006000400030001000000000097
:10055000060006000600060006000600060006006B
:100560000600080009000B000C000C000600060045
:1005700009000A000C000C000C00060008000A002C
:100580000C000C000C000C0007000A000C000C0012
:100590000C000C000B0008000A000C000C000C0002
:1005A0000C000C000A000B000C000C000C000C00EE
:1005B0000C0000000000000000000000000000002F
:1005C000000001000000000000000000000000002A
:1005D0000200010000000000000000000000030015
:1005E0000200010000000000000000000400030001
:1005F00002000100000000000000050004000300EC
:1006000002000100000000000600060006000600CF
:100610000600060006000700080009000A000B009B
:100620000C000C00080009000A000B000C000C0074
:100630000C0009000A000B000C000C000C000C0060
:100640000A000B000C000C000C000C000C000B004E
:100650000C000C000C000C000C000C000C000C003A
:100660000C000C000C000C000C0000007006FF1FBA
:100670008C06FF1FC006FF1FA2FEDEFE10FF4CFF10
:100680007EFFBAFF000046008200B400F0002201A5
:100690005E01000085EB513FCDCC4C3F713D4A3FA0
:1006A00014AE473FA4703D3FD7A3303F0AD7233F46
:1006B000D7A3303FA4703D3F14AE473F713D4A3F42
:1006C000CDCC4C3F85EB513F66666640CDCC4C406F
:1006D000333333409A9919409A99993F0000803FEB
:1006E0000000803F0000803F9A99993F9A991940F5
:1006F00033333340CDCC4C4066666640000010007A
:100700002000300040005000600000000000100099
:100710002000300040005000600000000000100089
:10072000200030004000500060000000060005007E
:1007300004000300020001000100050004000400A1
:100740000300020001000000040003000300020097
:100750000100000000000300020002000100000090
:100760000000000002000100010000000000000085
:100770000000010000000000000000000000000078
:100780000000000000000000000000000000060063
:10079000050004000300020001000100050005003F
:1007A0000400030002000100010004000400030033
:1007B000020001000100000003000300030002002A
:1007C000010001000000020002000200010001001F
:1007D0000000000002000100010000000000000015
:1007E0000000010001000000000000000000000007
:1007F00006000500040003000200010001000500DE
:1008000005000400030002000100010004000400D0
:1008100003000200010001000000030003000300C8
:1008200002000100010000000200020002000100BD
:1008300001000000000002000100010000000000B3
:1008400000000000010001000000000000000000A6
:100850000000030002000100010001000000000090
:100860000200020001000100000000000000010081
:100870000100010000000000000000000100010074
:100880000000000000000000000001000000000067
:100890000000000000000000000000000000000058
:1008A0000000000000000000000000000000000048
:1008B0000000000002000100010001000000000033
:1008C0000000010001000100000000000000000025
:1008D0000100010000000000000000000000010015
:1008E0000000000000000000000000000000000008
:1008F00000000000000000000000000000000000F8
:1009000000000000000000000000000000000000E7
:1009100000000000000001000100010000000000D4
:1009200000000000010001000000000000000000C5
:1009300000000100000000000000000000000000B6
:1009400000000000000000000000000000000000A7
:100950000000000000000000000000000000000097
:100960000000000000000000000000000000000087
:100970000000000000000000010001000000000075
:100980000000000000000100000000000000000066
:100990000000000000000000000000000000000057
:1009A0000000000000000000000000000000000047
:1009B0000000000000000000000000000000000037
:1009C0000000000000000000000000000000000027
:1009D000000000000000000000000000D809FF1F18
:1009E000C800CB00CE00D200D700DC00E60000003B
:1009F000DC00DF00E200E600EB00F000FA0000009F
:100A0000E600EA00EE00F300FA0004010E01000027
:100A1000F000F500FA00FF0004010E0118010000CB
:100A2000E100E400E700EB00F000FA000401000040
:100A3000C800CD00D200D700DC00E100E6000000D5
:100A4000D200D700DC00E100E600EB00F00000007F
:100A5000C800CD00D200D700DC00E100E6000000B5
:100A6000C800CD00D200D700DC00E100E6000000A5
:100A7000C800CD00D200D700DC00E100E600000095
:100A8000D809FF1F280AFF1F05000000FFFF000014
:100A90000000000000000000000000000000000056
:100AA00000000008080808080808000018180000DE
:100AB00000486C241200000000000000000000004C
:100AC0000000002424247F1212127F121212000050
:100AD0000000081C2A2A0A0C1828282A2A1C0808A0
:100AE00000000022251515152A58545454220000E0
:100AF0000000000C1212120A76252911916E0000D6
:100B000000060604030000000000000000000000D2
:100B100000402010100808080808081010204000A5
:100B20000002040808101010101010080804020039
:100B30000000000008086B1C1C6B08080000000087
:100B400000000000080808087F08080808000000E6
:100B50000000000000000000000000000606040382
:100B60000000000000000000FE0000000000000087
:100B70000000000000000000000000000606000069
:100B800000008040402020101008080404020200E9
:100B9000000000182442424242424242241800000F
:100BA000000000080E08080808080808083E0000B1
:100BB0000000003C4242422020100804427E000017
:100BC0000000003C4242201820404042221C00000D
:100BD000000000203028242422227E2020780000DB
:100BE0000000007E0202021A26404042221C000041
:100BF000000000382402021A264242422418000053
:100C00000000007E222210100808080808080000D2
:100C10000000003C4242422418244242423C000070
:100C2000000000182442424264584040241C000046
:100C30000000000000001818000000001818000054
:100C40000000000000000008000000000008080488
:100C5000000000402010080402040810204000009A
:100C60000000000000007F0000007F000000000086
:100C700000000002040810204020100804020000B8
:100C80000000003C424246402010100018180000AE
:100C90000000001C225A555555552D42221C0000BB
:100CA0000000000808181414243C224242E7000007
:100CB0000000001F2222221E22424242221F000068
:100CC0000000007C4242010101010142221C00009F
:100CD0000000001F2242424242424242221F0000C4
:100CE0000000003F4212121E12120242423F000058
:100CF0000000003F4212121E121202020207000000
:100D00000000003C2222010101712122221C00006E
:100D1000000000E7424242427E42424242E7000077
:100D20000000003E0808080808080808083E0000FF
:100D30000000007C10101010101010101010110F77
:100D40000000007722120A0E0A12122222770000F7
:100D5000000000070202020202020202427F0000BB
:100D600000000077363636362A2A2A2A2A6B0000F7
:100D7000000000E346464A4A52525262624700006F
:100D80000000001C2241414141414141221C000020
:100D90000000003F424242423E02020202070000BF
:100DA0000000001C2241414141414D53321C600072
:100DB0000000003F4242423E1212222242C700007F
:100DC0000000007C4242020418204042423E0000E3
:100DD0000000007F4908080808080808081C0000EF
:100DE000000000E74242424242424242423C00008E
:100DF000000000E7424222242414141808080000CE
:100E00000000006B4949494955553622222200000D
:100E1000000000E7422424181818242442E70000A8
:100E2000000000772222141408080808081C00009B
:100E30000000007E2120101008040442423F000000
:100E40000078080808080808080808080808780052
:100E5000000002020404080808101020202040406E
:100E6000001E1010101010101010101010101E0086
:100E700000384400000000000000000000000000F6
:100E8000000000000000000000000000000000FF63
:100E90000006080000000000000000000000000044
:100EA000000000000000003C4278444242FC000088
:100EB000000000030202021A26424242261A0000E3
:100EC0000000000000000038440202024438000024
:100ED00000000060404040784442424264D8000034
:100EE000000000000000003C427E0202423C000084
:100EF000000000F08808087E08080808083E000086
:100F0000000000000000007C22221C023C42423C07
:100F1000000000030202023A4642424242E7000059
:100F20000000000C0C00000E08080808083E000035
:100F30000000003030000038202020202020221E19
:100F40000000000302020272120A16122277000049
:100F50000000000E0808080808080808083E0000FD
:100F6000000000000000007F9292929292B7000071
:100F7000000000000000003B4642424242E7000001
:100F8000000000000000003C42424242423C00009F
:100F9000000000000000001B26424242221E020701
:100FA000000000000000007844424242447840E0E3
:100FB00000000000000000774C040404041F00003F
:100FC000000000000000007C42023C40423E000065
:100FD000000000000008083E08080808083000006B
:100FE00000000000000000634242424262DC000058
:100FF00000000000000000E742242414080800005C
:1010000000000000000000EB494955552222000075
:10101000000000000000007624181818246E00005C
:1010200000000000000000E742242414180808070C
:10103000000000000000007E22100808447E00002E
:1010400000C0202020202010202020202020C000B0
:101050001010101010101010101010101010101090
:10106000000608080808081008080808080806000C
:101070000C32C20000000000000000000000000070
:101080000A000000000000000000000000001841FD
:101090000000003F00000000000000000000000011
:1010A0000000000000000000000000000000000040
:1010B0000000000000000000000000000000000030
:1010C0000000000000000000000000000000000020
:1010D0000000000000000000000000000000000010
:1077B0000000000000140601000084416666663F78
:1077C00000B0034000B00B400000000000000000CB
:1077D00000000000000000000000000000000000A9
:1077E0000000000000004E6F6E4D61736B61626CB3
:1077F0006500000000486172644661756C740000A9
:10780000000000004D656D4D616E6167656D656ED0
:107810007400004275734661756C740000000000CE
:10782000000055736167654661756C740000000067
:107830000000000000000000000000000000000048
:107840000000000000000000000000000000000038
:107850000000000000000000000000000000000028
:10786000000000000000000000000000005356432C
:10787000616C6C000000000000000000446562754F
:10788000674D6F6E69746F720000000000000000A9
:107890000000000000000000000050656E645356B8
:1078A0000000000000000000005379735469636B0E
:1078B0000000000000000000444D413000000000C6
:1078C00000000000000000444D41310000000000B5
:1078D000000000000000444D4132000000000000A4
:1078E0000000000000444D41330000000000000093
:1078F00000000000444D4134000000000000000082
:10790000000000444D413500000000000000000070
:107910000000444D4136000000000000000000005F
:1079200000444D413700000000000000000000004E
:10793000444D4138000000000000000000000044F9
:107940004D41390000000000000000000000444DDF
:1079500041313000000000000000000000444D41B3
:10796000313100000000000000000000444D4131B2
:107970003200000000000000000000444D4131339F
:1079800000000000000000000000444D41313400C0
:10799000000000000000000000444D4131350000AF
:1079A0000000000000000000444D415F4572726F0E
:1079B000720000000000004D434D00000000000078
:1079C0000000000000004654464C0000000000008B
:1079D0000000000000526561645F436F6C6C697366
:1079E000696F6E004C56445F4C5657000000000013
:1079F0000000004C4C570000000000000000000098
:107A000000005761746368646F6700000000000045
:107A100000524E470000000000000000000000007F
:107A2000493243300000000000000000000000491F
:107A300032433100000000000000000000005350FD
:107A400049300000000000000000000000535049D1
:107A500031000000000000000000000053504932D7
:107A6000000000000000000000000043414E305FB5
:107A70004F525F4D425F6275660043414E305F4238
:107A800075735F4F666600000043414E305F45727C
:107A9000726F72000000000043414E305F54785F07
:107AA0005761726E696E6743414E305F52785F571F
:107AB00061726E696E6743414E305F57616B655FFF
:107AC000557000000052657365727665643531004B
:107AD00000000000526573657276656435320000FF
:107AE00000000043414E315F4F525F4D425F62756F
:107AF000660043414E315F4275735F4F666600001A
:107B00000043414E315F4572726F72000000000009
:107B100043414E315F54785F5761726E696E6743BF
:107B2000414E315F52785F5761726E696E674341B3
:107B30004E315F57616B655F557000000052657391
:107B40006572766564353900000000005265736522
:107B500072766564363000000000005541525430A2
:107B60005F52585F54580000000055415254305F36
:107B700045525200000000000055415254315F52FE
:107B8000585F54580000000055415254315F45522F
:107B90005200000000000055415254325F52585FBD
:107BA00054580000000055415254325F4552520073
:107BB000000000000055415254335F52585F545842
:107BC0000000000055415254335F455252000000FE
:107BD00000000055415254345F52585F5458000021
:107BE000000055415254345F4552520000000000DD
:107BF0000055415254355F52585F54580000000000
:107C000055415254355F455252000000000000417A
:107C10004443300000000000000000000000414428
:107C200043310000000000000000000000434D5000
:107C3000300000000000000000000000434D503103
:107C40000000000000000000000000434D50320022
:107C50000000000000000000000046544D3000000D
:107C600000000000000000000046544D31000000FC
:107C7000000000000000000046544D3200000000EB
:107C800000000000000000434D5400000000000010
:107C900000000000000052544300000000000000FB
:107CA0000000000000526573657276656438330029
:107CB00000000000504954300000000000000000A7
:107CC0000000005049543100000000000000000096
:107CD0000000504954320000000000000000000085
:107CE0000050495433000000000000000000000074
:107CF0005044423000000000000000000000005529
:107D00005342300000000000000000000000555306
:107D100042444344000000000000000000454E457E
:107D2000545F313538385F54696D6572454E45543E
:107D30005F5472616E736D69740000454E45545F07
:107D400052656365697665000000454E45545F45A0
:107D500072726F7200000000004932533000000060
:107D600000000000000000005344484300000000F1
:107D7000000000000000004441433000000000000B
:107D800000000000000044414331000000000000FA
:107D900000000000005453493000000000000000C3
:107DA000000000004D4347000000000000000000FC
:107DB0000000004C5054696D657200000000000026
:107DC00000005265736572766564313032000000E0
:107DD00000504F525441000000000000000000001D
:107DE000504F5254420000000000000000000050BC
:107DF0004F52544300000000000000000000504FAC
:107E000052544400000000000000000000504F5297
:107E1000544500000000000000000000526573653A
:107E20007276656431303800000000526573657207
:107E300076656431303900000000526573657276F2
:107E400065643131300000000052657365727665FB
:107E500064313131000000005265736572766564EB
:107E6000313132000000005265736572766564310D
:107E700031330000000052657365727665643131FC
:107E800034000000005265736572766564313135E7
:107E9000000000005265736572766564313136000A
:107EA00000000052657365727665643131370000F9
:107EB00000005265736572766564313138000000E8
:107EC00000526573657276656431313900000000D7
:107ED000008003400090034000800B400000000041
:107EE000000000000000000000F00F4040F00F40D4
:107EF00080F00F40C0F00F4000F10F40F0000A1D6D
:107F00003000180032001801600018186400181AB8
:107F10006E00181F780013187D00131A8200131CBE
:107F20008C000E1296000E15A0000E18AA000E1B53
:107F3000B4000E1EC8000C1CE1000B1EFA000A1F44
:107F4000000109080090044000A0044000B0044073
:107F500000C0044000D0044000A0064000B006402D
:107F600000C0064000D0064000A00E4000B00E4009
:107F7000713D8A40CDCC8440000080403D0A77406E
:107F80007B146E4052B85E4052B85E40AE475140DE
:107F90001F854B408FC245400000404048E13A40B9
:107FA0008FC23540CDCC2C40CDCC2C40E17A244042
:107FB000E17A2440CDCC1C40CDCC1C4066661640F6
:107FC000666616400000104000001040713D0A40F7
:107FD000713D0A40B81E0540B81E05405C8F024046
:107FE00000000040000000403D0AF73F3D0AF73F17
:107FF0007B14EE3F7B14EE3F6666E63F6666E63F27
:108000006666E63F52B8DE3F52B8DE3FEC51D83FDD
:10801000EC51D83FE17AD43F85EBD13F7B14CE3F82
:108020001F85CB3F1F85CB3FC3F5C83FB81EC53F5B
:108030005C8FC23F0000C03F0000C03FA470BD3F46
:1080400048E1BA3FEC51B83FEC51B83FEC51B83F72
:108050003333B33F3333B33F295CAF3F295CAF3F8A
:10806000295CAF3F713DAA3F713DAA3FC3F5A83FD0
:108070006666A63F6666A63FB81EA53FB81EA53F2A
:108080005C8FA23FAE47A13FAE47A13F52B89E3F93
:1080900052B89E3F52B89E3F52B89E3F48E19A3F29
:1080A00048E19A3F48E19A3FEC51983FEC51983FA4
:1080B000EC51983F8FC2953FE17A943FE17A943F2B
:1080C000E17A943F3333933F85EB913F85EB913FCA
:1080D00085EB913FD7A3903F7B148E3F7B148E3F5F
:1080E0007B148E3FCDCC8C3F1F858B3F713D8A3FEB
:1080F000713D8A3F713D8A3FC3F5883F14AE873F8B
:1081000014AE873F14AE873F14AE873F6666863F46
:10811000B81E853FB81E853FB81E853FB81E853FF7
:10812000B81E853F0AD7833F5C8F823F5C8F823FBA
:108130005C8F823F5C8F823F5C8F823F5C8F823F8F
:108140000000803F0000803F0000803F0000803F33
:10815000222123290D81110009030CD01240173F61
:10816000185019031A783200A00A63E0ACFF650CBE
:108170006600670029282C3C2A007E0C7F16802A86
:10818000814E8261836F847B8586868E879788A4E3
:1081900089AF8AC58BD78CE88D204A0049134708E0
:1081A0004B144C17460522992303A6049B009C40C0
:1081B000AB069E119F02000001310000000000008C
:1081C00070B40FF28004248881B0ADF80040ABB3E6
:1081D0000DF1000412F8015BEE4301F8016BEE09AA
:1081E000365D00F8016BAE0906F00106365D00F859
:1081F000016B6E0906F00106365D00F8016B2E0971
:1082000006F00106365D00F8016BEE0806F0010687
:10821000365D00F8016BAE0806F00106365D00F829
:10822000016B6E0806F0010605F00105365D00F8E9
:10823000016B5B1E2D5D00F8015BCBD101B070BC02
:1082400070470000FF0000002DE9F04F83B0A02030
:108250008DF804008DF80500002401F099FDDFF889
:10826000C01B0C7000F046FC0546DFF8B88BD8F850
:108270006407D8F86017421802EBD272D2051216C2
:10828000142A02D2401A012800DA0A22DFF8980BD9
:1082900002700DF105012A4601A800F08FFC8DF84F
:1082A000000002469DF805109DF804002B4600F0E2
:1082B000CFFD02900299DFF8740B00EB0110C1684A
:1082C0008068081A0A28B8BF8DF800409DF90000A0
:1082D000DFF85C1BDFF8BCBC08605A4629B2772087
:1082E00000F044FFDFF84CAB524629B2772000F093
:1082F0003DFF7527DFF8406B752D2DDA0BEB47003E
:108300003BF91710B0F90400401A03F0C7F8002237
:10831000334603F0D9F803F0B9F908F5F06141F8F4
:1083200027007F1E7FB2BD4216DA0BEB47003BF9F8
:108330001710B0F90400401A03F0B0F800223346D9
:1083400003F0C2F803F0A2F908F5F06141F8270044
:108350007F1E7FB2BD42D1DB7527752D80F22E8046
:108360000AEB47003AF91710B0F90400401A03F07D
:1083700095F80022334603F0A7F803F087F908F6D2
:10838000343141F827007F1E7FB2BD4216DA0AEB76
:1083900047003AF91710B0F90400401A03F07EF8CC
:1083A0000022334603F090F803F070F908F63431F8
:1083B00041F827007F1E7FB2BD42D1DB6C235A46B5
:1083C000294608F5F06000F0FDFE7223524629466A
:1083D00008F6343000F0F6FE6C22294608F5F0600D
:1083E00000F033FF7222294608F6343000F02DFFEA
:1083F000DFF82C0A05702F4698F9280B8542B8BF84
:10840000074698F9DC0E2E468542B8BF0646DFF8CF
:108410002C0A007858B19DF805209DF804109DF8AD
:1084200000002F462E462B4601F01EFD0446DFF8C5
:10843000100A90F90000C8F8006FC8F8FC7E40B13F
:108440009DF805209DF804109DF9000002F0D0FE73
:108450000324DFF8EC0990F9007054EA07002BD1EF
:1084600098F9E30E98F92F1B0A1A48BF5242142AB2
:1084700022DA1529A8BF15281EDB01F05FF8044693
:10848000032C19D1DFF8BC09017800290CBF0121A8
:108490000521DFF8AC29DFF8B0391B781170DFF85F
:1084A000AC190A781340037050000870C0B220283D
:1084B00003D10120087000E067B19DF805309DF8F8
:1084C00004209DF80010C8F8FC5EC8F8005F28463C
:1084D00001F082FE9DF90000DFF8847C002800F0A6
:1084E000FA80002C40F0F780DFF85409C8F8FC5EF1
:1084F000C8F8005F0057002840F09A809DF80500FA
:1085000098F92F1B8142BCBF98F9E31E814280F28B
:108510008F8098F9281B8142BCBF98F9DC1E8142EC
:1085200080F286809DF804009DF805200A30C1B2D3
:108530009F23491C8A422EDA881A0BEB420C10F05A
:10854000030608D0BCF900909945B8BF4B46761E8B
:108550000CF1020CF6D15FEA900E1AD0BCF90000C3
:108560009842B8BF0346BCF902609E42C8BF1E468F
:10857000BCF90490B145C8BFB146BCF906300FFA4A
:1085800089F08342C8BF0346BEF1010E0CF1080C0E
:10859000E4D1012B4CDB00238A4229DA891A0AEB49
:1085A000420011F0030208D0B0F90060B342B8BF36
:1085B0003346521E801C002AF6D1890816D0025F6D
:1085C0009342B8BF1346B0F902209342B8BF134696
:1085D000B0F904209342B8BF1346B0F90620934285
:1085E000B8BF1346491E08300029E8D19F2B1FDA77
:1085F00002989DF805209DF8041040B201F0C4F9DE
:108600000446042C04D013D3062C0BD005D30FE062
:10861000DFF82818012008700AE00220DFF81C1893
:10862000087005E03878002812BF0328401C387015
:10863000DFF80C0890F90000204323D198F92F6B44
:108640009DF80410711A0B29A8BF292E1ADB6C2083
:108650000090304602999DF804309DF8052049B2FB
:1086600000F0D8FE0446012C0CD172200090F11CC1
:108670009DF904009DF90530C21E52B249B2584618
:1086800001F014FBDFF8B80790F90000204322D175
:1086900098F9E34E9DF80410611A0B29A8BF292C04
:1086A00019DB72200090204602999DF804309DF855
:1086B000052049B200F0AEFE02280CD16C200090DB
:1086C000E11C9DF904009DF90530C21E52B249B269
:1086D000504601F0EBFA3878401E042800F246813B
:1086E000DFE810F0050054004401A500F300D8F8BD
:1086F000600798F964370246401C0146002440B2E6
:10870000984240DAA3EB000C1CF0030EDFF8D80C03
:108710000AD049B20E1896F83869FF2E08BF641CBB
:10872000491CBEF1010EF4D15FEA9C0C22D049B283
:108730000E1896F83869FF2E08BF641C491C49B210
:108740000E1896F83869FF2E08BF641C491C49B200
:108750000E1896F83869FF2E08BF641C491C49B2F0
:108760000E1896F83869FF2E08BF641C491CBCF12E
:10877000010CDCD152B2981A64B2401E844202D17C
:10878000092C80F2F38002203870EFE00024D8F842
:10879000600798F964370246401C014640B298428F
:1087A00080F2E480A3EB000C1CF0030EDFF8380C21
:1087B0000AD049B20E1896F83869FF2E08BF641C1B
:1087C000491CBEF1010EF4D15FEA9C0C22D049B2E3
:1087D0000E1896F83869FF2E08BF641C491C49B270
:1087E0000E1896F83869FF2E08BF641C491C49B260
:1087F0000E1896F83869FF2E08BF641C491C49B250
:108800000E1896F83869FF2E08BF641C491CBCF18D
:10881000010CDCD152B2981A64B2401E844240F07E
:10882000A580092CC0F2A280032038709EE00024AD
:10883000D8F8600798F964370246401C014640B2F8
:1088400098423FDAA3EB000C1CF0030EDFF8980B04
:108850000AD049B20E1896F83869FF2E08BF641C7A
:10886000491CBEF1010EF4D15FEA9C0C22D049B242
:108870000E1896F83869FF2E08BF641C491C49B2CF
:108880000E1896F83869FF2E08BF641C491C49B2BF
:108890000E1896F83869FF2E08BF641C491C49B2AF
:1088A0000E1896F83869FF2E08BF641C491CBCF1ED
:1088B000010CDCD152B2981A64B2401E844201D13C
:1088C000092C53DA0520387050E00024D8F86007EE
:1088D00098F964370246401C014640B2984245DA96
:1088E000A3EB000C1CF0030EDFF8FC0A0AD049B21F
:1088F0000E1896F83869FF2E08BF641C491CBEF19B
:10890000010EF4D15FEA9C0C22D049B20E1896F801
:108910003869FF2E08BF641C491C49B20E1896F82E
:108920003869FF2E08BF641C491C49B20E1896F81E
:108930003869FF2E08BF641C491C49B20E1896F80E
:108940003869FF2E08BF641C491CBCF1010CDCD146
:1089500052B2981A64B2401E844207D1092C05DB3A
:10896000062038700120DFF8841A08703878DFF8A4
:10897000801A0860D8F8FC0E5128A8BFC8F8FC5E21
:10898000D8F8000F5128A8BFC8F8005FD8F8FC0E2F
:10899000401D6E28A8BF6E20C8F8FC0ED8F8000F46
:1089A000401D6E28A8BF6E20C8F8000FD8F8FC0E36
:1089B0003BF910105129A8BF5A4606DAD8F8000F23
:1089C0003AF91010502904DA52460021C0B201F0E1
:1089D00051F8DFF8202A5146584601F041F900F0DD
:1089E00017F8DFF83C0490F9000018B9DFF83014EC
:1089F000681C0870D8F8E80E02F090FE00B201285A
:108A0000B8BF4042DFF8F019088003B0BDE8F08F2E
:108A10002DE9F04FDFF8E409DFF8084490F9008011
:108A2000D4F8E89E00267727C8F1770581B0C4F80E
:108A3000EC9E772DDFF8C8A9DFF8B8B980F2228064
:108A40003BF917004F3802F08BFE5AF8271002F05E
:108A5000A1FE314602F00AFF7F1E7FB20646BD42EC
:108A600010DA3BF917004F3802F07AFE5AF8271057
:108A700002F090FE314602F0F9FE7F1E7FB20646FC
:108A8000BD42DDDB404602F06BFE0146304602F09F
:108A90002FFF0646494602F0A9FFDFF8681903F0E8
:108AA00019F805D8DFF86009494602F0DFFE0646EE
:108AB000DFF858793046494602F098FF394603F00E
:108AC0001BF803D2484602F0D1FE06463046DFF8D6
:108AD000581A02F0FFFF98BFDFF8506A05D9DFF897
:108AE000501A03F009F838BF0E46C4F8E86E01B01A
:108AF000BDE8F08FF0B4CC48DFF8382A90F9004098
:108B0000DFF8343A2146772004E0E55CFF2D18BFFA
:108B100077280FD12546EE18002D17D411D03778BD
:108B2000FF2F04D07778FF2F01D1132D09DB6D1EA5
:108B3000761EF1E72546EE18142D07DA16F8017BAC
:108B40000FB1156002E06D1C8D42F5DBCD5CFF2D91
:108B500018BF772811D1CC1814291ADA132917D085
:108B60002578FF2D06D014F8015CFF2D02D14D1E93
:108B7000122D0DD3491C641CEEE7CD1800E0491EF0
:108B80008C4206DA002904D415F80169002EF6D0CB
:108B900051601468142C3CBF516814290CD264B283
:108BA00049B2152C18BF152906D08C4204DA401E94
:108BB000143B103A0028A8D5F0BC70472DE9F74FB8
:108BC00081B0A0210398A02200231528A6BF03A8E6
:108BD0000078142000904FF0770801E0A8F1010818
:108BE0000098404580F218814FEA08168D48DFF85A
:108BF000F847305808EB880704EB8709894F814410
:108C0000F61908E0FF2F1EBF99F80170FF2FB06022
:108C1000401C09F101097768B8420FDAB768A02F44
:108C200099F80070EED0FF2FF2D099F80170FF2F65
:108C30001EBF471C7468A742EAD1F060F068A02804
:108C4000CCD0C146A8F10108DFF8C40700EB081733
:108C5000DFF8940708EB880600EB860604E000BF07
:108C6000A8F10108143E103F0398404580F2BD80F2
:108C700097F818C03C69387FA44504BF0CF1010483
:108C80005FFA84FC7C69A04204BF401EC0B21CF89D
:108C90000640FF2CE64623D10EEB0604704551DB5F
:108CA00014F8015BFF2D4BD10EF1010E704549DB2D
:108CB00014F8015BFF2D43D10EF1010E704541DB2D
:108CC00014F8015BFF2D3BD10EF1010E704539DB2D
:108CD00014F8015BFF2D08BF0EF1010EDED02FE06E
:108CE0003C680EEB060A651C04E000BFAEF1010E05
:108CF000AAF1010AA64525DB9AF800B0BBF1FF0FE7
:108D000011D01AF801BCBBF1FF0F01D1754517DB7B
:108D1000AE4508D10EEB060414F8014CE4070FD45D
:108D2000AEF1010E0CE0A645E0D19AF801B0BBF11E
:108D3000FF0FDBD01EF80640E40748BF0EF1010E1E
:108D4000C7F808E0845DFF2C1FD100EB060E6045DC
:108D500044DB1EF80149FF2C3FD1401E60453DDB3E
:108D60001EF80149FF2C38D1401E604536DB1EF845
:108D70000149FF2C31D1401E60452FDB1EF801490F
:108D8000FF2C08BF401EE2D027E0D7F804E000EB3C
:108D9000060CAEF1010402E0401C0CF1010C86450A
:108DA0001CDB9CF80050FF2D0DD09CF80150FF2DCE
:108DB00001D1A04211DBA04205D184196478802C36
:108DC0000BDA401C09E07045E6D11CF8015CFF2D70
:108DD000E2D0845D802CA8BF401EF860B868A0284F
:108DE0001CBFF868A0287FF43BAF08F101005FFAD0
:108DF00089F7C0B23E1AB34203DA3B1A394602463B
:108E0000DBB2062BFFF6EAAE019801700298027001
:108E1000012004B0BDE8F08F002004B0BDE8F08F61
:108E20007D10FF1F8085FF1F7810FF1F8494FF1F98
:108E3000E084FF1FE482FF1F0000E03F099CFF1F4A
:108E40000F9CFF1F109CFF1FAE77FF1FAF77FF1F08
:108E50002DE9FF4F83B000220698A021772300ADB3
:108E60000DF100080FF2FC24772880F2B2801F0178
:108E7000DFF89C05DFF87065385603EB830E06EBD0
:108E80008E0EB4E8000C10F80EC00DF1000900269B
:108E9000A9E8000C4FEADC1988F80790083C4FEA73
:108EA0009C1909F0010988F806904FEA5C1909F04D
:108EB000010988F805904FEA1C1909F0010988F8A2
:108EC00004904FEADC0909F0010988F803904FEAA1
:108ED0009C0909F0010988F802904FEA5C0909F041
:108EE000010988F801900CF001098DF800904FF00D
:108EF000070C0DF1070902E0761CACF1010C19F921
:108F000001A9BAF1000F04D14FFA8CFCBCF1000F9B
:108F1000F2D506EBC000DFF8586BC0B2B8511D4E59
:108F200026F8130000AEDFF8E804381890F90400C2
:108F300010F80EC0B4E80006A6E800064FEADC16FA
:108F4000EE7196464FEA9C1606F00106AE71083C9B
:108F50004FEA5C1606F001066E714FEA1C1606F029
:108F600001062E714FEADC0606F00106EE704FEAAC
:108F70009C0606F00106AE704FEA5C0606F001069C
:108F80006E700CF001068DF800600DF1000C0826E3
:108F900005E000BFF481FF1F0EF1010E761E1CF9E3
:108FA000019BB9F1000F01D1002EF5D1401CCEEB91
:108FB000C000DFF8BC6A401E3744C0B27860DFF8FA
:108FC0006C7B27F813005B1E06985BB29842FFF695
:108FD0004EAF9DF91400002800F0BD809DF90C30C3
:108FE0009DF8100002908342C0F2B580DFF82004A3
:108FF000DFF8F47300EB031003EB830690F908909D
:1090000007EB860EB4E8000C19F80E700DF1000C99
:109010000026ACE8000C4FEAD71C88F807C0083CD3
:109020004FEA971C0CF0010C88F806C04FEA571C59
:109030000CF0010C88F805C04FEA171C0CF0010C6D
:1090400088F804C04FEAD70C0CF0010C88F803C074
:109050004FEA970C0CF0010C88F802C04FEA570C4D
:109060000CF0010C07F0010788F801C08DF80070C2
:109070004FF0080C00AF02E0761CACF1010C17F9C0
:1090800001ABBAF1000F02D1BCF1000FF4D109F12C
:10909000010CDFF8DC79C6EBCC0C07EB0317ACF165
:1090A0000106F6B2BE6000AE90F90C0010F80EC0DA
:1090B000B4E80006A6E800064FEADC16EE714FF0B1
:1090C000000E4FEA9C1606F00106AE71083C4FEA0E
:1090D0005C1606F001066E714FEA1C1606F00106DA
:1090E0002E714FEADC0606F00106EE704FEA9C0690
:1090F00006F00106AE704FEA5C0606F001066E70DF
:109100000CF001068DF800604FF0070C0DF107061A
:1091100004E000BF0EF1010EACF1010C16F901994B
:10912000B9F1000F04D14FFA8CFCBCF1000FF1D55E
:109130000EEBC000C0B2F860D2B2BE68801B8242A3
:1091400003DAF868BA681946821A5B1E02985BB2A5
:109150008342BFF64BAFC8B207B0BDE8F08F000046
:10916000089CFF1F0000000000000000401E40B2ED
:10917000814200DB7047F0B402EB400532F9106029
:10918000B5F90270431CBE42BABF1E4603460646EE
:1091900035F9024C32F9165032F91330AC4205DA87
:1091A000A342A8BF1C4622F8104004E0AB42B8BF5F
:1091B0002B4622F81030401E40B28142DCDBF0BC6E
:1091C00070470000F0B4002480F8AF431029B8BF06
:1091D0000F216C2B17D17323994234DA02EB43052C
:1091E000B5F9086032F9134035F9085C361B651B88
:1091F00006FB05F7002F02D416B9032D00DBFCB9DE
:109200005B1E5BB2E8E773236FF0010401E05B1EB5
:109210005BB2994217DA02EB4306B6F9087032F9ED
:10922000135036F9086C7F1BAE1B07FB06FCBCF124
:10923000000F03D4002FEAD1A642E8DA9F2DE6D032
:10924000D91E80F8AF13F0BC70472DE9F44F0546E6
:1092500082B0002685F8A863894685F8A96385F859
:10926000AA63B9F1150FB8BF4FF01409732708E0CE
:109270002CB94FF0824102F03FFC38BF0124781E28
:1092800047B2B94558DA05EB870ADAF80800DAF888
:10929000041002F0EBFA55F8271002F0E7FADFF8B5
:1092A000B01B02F025FBCAF8D801804655F827000C
:1092B000DAF804B0DAF808100091414602F096FBA3
:1092C00082465846414602F091FB8346009841464B
:1092D00002F08CFB014602F05DFA80465846594682
:1092E00002F058FA414602F0C1FA80465046514613
:1092F00002F050FA414602F0B9FADFF8541B02F0CE
:10930000F7FADFF8501B02F0E5FB64B2B0D8002C8E
:10931000AFD07119B81C81F8A8033EB140B291F9E1
:10932000A713081A0528BCBF761E76B2761C76B243
:10933000032EB8BF0024A2DB85F8AE639DF90800B8
:109340006C2828D1002E4BD0761E76B2701990F979
:10935000A813DFF8040B00EB4100821F811CB2F957
:109360000430B2F90220D21830F9063CB0F90200FC
:10937000D218B1F90230B1F904101818401882421D
:10938000B4BF012000207119002E81F8AB03DBD19E
:1093900003B0BDE8F08F1EB3761E76B2701990F957
:1093A000A813DFF8880700EB4100821F811CB2F987
:1093B0000430B2F90220D21830F9063CB0F90200AC
:1093C000D218B1F90230B1F90410181840188242CD
:1093D000B4BF002001207119002E81F8AB03DBD14E
:1093E00003B0BDE8F08F00004C6EFF1F0A9CFF1F0A
:1093F000DC84FF1FD483FF1F049CFF1FAC77FF1F7B
:10940000687FFF1F0100A0410000A0410000A0C133
:109410008085FF1F30B4024602F114036E2BB4BFE7
:10942000DBB26E239DF90840DFF844066C2C00EB9C
:109430000110DFF8F8463BD1DFF81C4A01E05B1E63
:10944000DBB234F91350B5B99A4214DA5B1EDBB2C1
:1094500034F913507DB99A420DDA5B1EDBB234F950
:10946000135045B99A4206DA5B1EDBB234F9135049
:109470000DB99A42E3DB34F9135034F91240591A0A
:10948000641B491C61439A1A91FBF2F1C2684919A5
:109490008B1A012BB8BF531A8268881A0128B8BFEB
:1094A000501A83423CDA30BC012070475B1EDBB2AD
:1094B00034F913509F2D19D19A4217DA5B1EDBB293
:1094C00034F913509F2D11D19A420FDA5B1EDBB293
:1094D00034F913509F2D09D19A4207DA5B1EDBB293
:1094E00034F913509F2D01D19A42DFDB34F9135028
:1094F00034F91240591A641B491C61439A1A91FBB2
:10950000F2F1826849198B1A012BB8BF531AC0684F
:109510000A1A012AB8BF421A9342B8BF022000DBE0
:10952000002030BC704700000100164300001643C5
:10953000000016C3F08CFF1F9877FF1F2DE9F04F36
:10954000FDB04FF00008C14641A8F02102F0E6FA54
:1095500005A80FF24431F02202F0F4FADFF8FC081B
:1095600090F9E31E90F92F0B02900191123047B24F
:1095700001981230C246C34644B2772FA8BF77275E
:10958000772CA8BF77240299DFF8CC0800EB4101C3
:10959000B1F90650029930F91700CE1C281A02F0D2
:1095A000DFF80090F01B02F0DBF80146009802F0B3
:1095B0009FF901990490DFF8740500EB410130F93F
:1095C0001400B1F90670C01B02F0CAF800900198AF
:1095D000201AC01E02F0C4F80146009802F088F973
:1095E0000390284602F0BCF80446304602F0B8F872
:1095F000049902F0CFF80146204602F0F7F904463C
:10960000384602F0ADF805460198C01C02F0A8F8F3
:10961000039902F0BFF80146284602F0E7F9074631
:1096200002A841AEB0F9005001E0681E05B2002D5D
:1096300013D4284602F094F8049902F0ABF82146BE
:1096400002F014F902F06AF826F8150041A800EBC0
:109650004500B0F90200A028E7D301A805ADB0F994
:10966000004001E0601E04B2002C13D4204602F03A
:1096700077F8039902F08EF8394602F0F7F802F015
:109680004DF825F8140005A800EB4400B0F90200DD
:10969000A028E7D30298DFF8C847C01E00B201E057
:1096A000401E00B2002813D441AA02EB400200EB96
:1096B0008001B2F9022004EB4111521892F8A02067
:1096C000FF2A02BF36F91020515C0029E8D18246FA
:1096D0000198C11E00E0491E09B2002900F1D8809E
:1096E00005AA02EB410201EB8100B2F9022004EB72
:1096F0004010121892F8A020FF2A02BF35F911205D
:10970000135C002BE7D10091BAF1000F00F0C0808C
:109710000B0000F0BD8036F91110511A0B29B8BFAB
:109720000A2076DB194635F9115036F91A60514591
:109730001CD13746BD4211DB395C8B44791C0AB21F
:1097400095420BDB115C8B44511C0AB2954205DB40
:10975000115C8B44511C0FB2BD42EDDA0FFA8BF154
:10976000FF2091FBF0F000B2194656E0A81B01F073
:1097700095FE074600988946A0EB0A0001F08EFE90
:1097800002460B463846494602F008FA01F07EFFD1
:1097900080463746504601F0E3FF8146BD422DDB4F
:1097A000B81B01F0DDFF414602F0A2F8494602F085
:1097B0005DF801F0B3FF40B200EB800104EB411013
:1097C000385C5BFA80FB781C07B2BD4216DBB81B25
:1097D00001F0C6FF414602F08BF8494602F046F818
:1097E00001F09CFF40B200EB800104EB4110385CBB
:1097F0005BFA80FB781C07B2BD42D1DA404602F02A
:10980000F1FA804689460FFA8BF1FF2091FBF0F0C8
:1098100000B200995145B8BF5146102938DB009974
:10982000BAEB010148BF49420F2931DA0199029A86
:109830009142B8BF1146009A9245C8BF9246A1EB2B
:109840000A01102924DB18BB4046494601224FF08B
:10985000804302F0EFFA05D900224FF0404302F0B6
:1098600001FB15D20498002102F046F910D8DFF868
:10987000341902F02FF90BD80398002102F02AF9CD
:1098800006D8DFF8241902F037F938BF032000D3D7
:1098900000207DB0BDE8F08F9F00000000000000B8
:1098A00000000000000000000000000000000000B8
:1098B00000000000000000000000000000000000A8
:1098C0000000000000000000000000000000000098
:1098D0000000000000000000000000000000000088
:1098E0000000000000000000000000000000000078
:1098F0000000000000000000000000000000000068
:109900000000000000000000000000000000000057
:109910000000000000000000000000000000000047
:109920000000000000000000000000000000000037
:109930000000000000000000000000000000000027
:109940000000000000000000000000000000000017
:109950000000000000000000000000000000000007
:1099600000000000000000000000000000000000F7
:1099700000000000000000000000000000000000E7
:1099800000000000000000002DE9F04F82464FEA81
:109990000A10374BDFF814B8C41881B050F80380B0
:1099A0006668B044DFF80868875900EB060C08EBDE
:1099B000D8759CF904E0CDF800B0ED054FEA2568B4
:1099C0000AEB8A0B7D1CDDF800A06DB24FF0000998
:1099D0000AEB8B0A75450CDA15F80AB0BBF1000FDB
:1099E0001CBFBBF1FF0F09F101096D1C6DB275457C
:1099F000F2DBDCF80C50DCF808A0DCF804C0865977
:109A0000A5EB0A05AD1CACEB0606B5420CDB7FB23C
:109A1000AEEB070606EBD67676104FFA89F94E457F
:109A2000BCBF6E29062020DBE668A768C058F61B7D
:109A300067687600381A8642BCBF4FFA89F003285F
:109A400012DA881A1028A8BF1F290DDBA068A8F118
:109A50000A018842A8BF052007DAE16808F10A0078
:109A60008842A8BF042000DA002001B0BDE8F08FD2
:109A70008494FF1F2DE9F04B04469046274608EBDF
:109A8000470938F91760B9F90A000D46301A01F094
:109A900005FD0022DFF81C3702F080F801F0F6FD2A
:109AA000002102F0F7F9834604D1002E0CBF9F2E4F
:109AB000002039D1641E64B27E1EAC42C0F23380F5
:109AC00039F8047C301B01F04BFE594601F062FE70
:109AD00001F024FEC01928F81400641E64B2AC42E0
:109AE00021DB39F8047C301B01F03AFE594601F0C5
:109AF00051FE01F013FEC01928F81400641E64B270
:109B0000AC4210DB39F8047C301B01F029FE5946C9
:109B100001F040FE01F002FEC01928F81400641E96
:109B200064B2AC42CCDA0120BDE8F08BE482FF1FC6
:109B30002DE9F04705460E46F01A07B2DDF820A0E1
:109B40001446002F6ED0281B01F0A8FC80468946E1
:109B5000384601F0A3FC02460B464046494602F057
:109B60001DF801F093FD0746284601F0F9FD8146F6
:109B7000304601F0F5FD394601F00CFE014648463D
:109B800001F034FF06463846002102F083F965D023
:109B90006D1E2DB2AC4261DA284601F0E1FD31467E
:109BA00001F024FF394601F0A3FE01F0B7FD2AF8C9
:109BB00015006D1E2DB2AC4250DA284601F0D0FDE2
:109BC000314601F013FF394601F092FE01F0A6FD87
:109BD0002AF815006D1E2DB2AC423FDA284601F07E
:109BE000BFFD314601F002FF394601F081FE01F070
:109BF00095FD2AF815006D1E2DB2AC422EDA2846CE
:109C000001F0AEFD314601F0F1FE394601F070FE83
:109C100001F084FD2AF815006D1E2DB2AC42BBDBAD
:109C2000BDE8F0876D1E2DB2AC4217DA2AF8156038
:109C30006D1E2DB2AC42BFBF2AF815606D1E2DB24D
:109C4000AC420BDA2AF815606D1E2DB2AC42BFBFD4
:109C50002AF815606D1E2DB2AC42E7DBBDE8F08737
:109C600030B4772330F9134031F91350002C07D06A
:109C70009F2D07D1012C0BDB9F2D10D136340CE02A
:109C80009F2DF7D105FA84F404EBD474641004E03A
:109C90002CB99F2D03DAA5F1360422F813405B1E80
:109CA0005BB2002BDED530BC70470000F0B581B050
:109CB0001F4604469DF91830DFF8A861084615468E
:109CC00006EB05114FEA001C6C2B009430D18B6819
:109CD0000CEB06011BB2496809B2FFF729FFBD4230
:109CE000C0F2548006EB0510806824F815006D1E44
:109CF0002DB2BD424ADB06EB0510806824F8150042
:109D00006D1E2DB2BD4241DB06EB0510806824F8C4
:109D100015006D1E2DB2BD4238DB06EB05108068C4
:109D200024F815006D1E2DB2BD42DBDA01B0F0BD86
:109D3000CB685CF806101BB209B2FFF7F9FEBD4212
:109D4000C0F2248006EB0510C06824F815006D1ED3
:109D50002DB2BD421ADB06EB0510C06824F81500D1
:109D60006D1E2DB2BD4211DB06EB0510C06824F854
:109D700015006D1E2DB2BD4208DB06EB0510C06854
:109D800024F815006D1E2DB2BD42DBDA01B0F0BD26
:109D9000F0B4DFF8C830DFF82004DFF82014DFF873
:109DA0002024DFF8205403F5EE642826A02727603E
:109DB0006760A760E7602F606F60AF60EF609F270C
:109DC00020F80279002721F80279502722F8027939
:109DD000A02744F8107C44F80C7C44F8087C44F834
:109DE000047C45F8107C45F80C7C45F8087C45F867
:109DF000047C9F2720F80279002721F80279502758
:109E000022F80279A02744F8207C44F81C7C44F80E
:109E1000187C44F8147C45F8207C45F81C7C45F8F7
:109E2000187C45F8147C303D9F2720F80279303C9F
:109E3000002721F80279502722F80279761EB5D141
:109E40000020C3F8FC0EC3F8000FF0BC7047000000
:109E50000000404001000041F481FF1F8085FF1F8A
:109E60004C23FF1F8494FF1FF0B4DFF864532E7857
:109E70001C46012E40F0CC800423DFF83463002818
:109E80004ED0B6F9FA0E88424ADA1446A4F1140507
:109E9000A842B8BFA2F11400A6F8FA0E01F10F0013
:109EA0007728C8BF772000BFA4F10F06B042C0F2E8
:109EB0007581002800F17281DFF81813DFF80C5368
:109EC000097835F81070DFF800237F1A22F8107037
:109ED000401EB042C0F26281002800F15F8135F877
:109EE00010707F1A22F81070401EB042C0F25681E6
:109EF000002800F1538135F810707F1A22F8107095
:109F0000401EB042C0F24A8100285FBF35F81050B1
:109F1000691A22F81010401EC6D5F0BC58B270471E
:109F200096F92E0B02284EDB96F92B0B002804BF66
:109F300096F92C0B012849D1292CACBF20462820AA
:109F400096F9297BB84241DA96F9280B0F30772829
:109F5000C8BF7720A7F10F04A042C0F21F810028DC
:109F600000F11C819B49994D097835F81060964A9B
:109F7000761A22F81060401EA042C0F20F8100281D
:109F800000F10C8135F81060761A22F81060401E3E
:109F9000A042C0F20381002800F1008135F8106072
:109FA000761A22F81060401EA042C0F2F780002806
:109FB0005FBF35F81040611A22F81010401EC9D555
:109FC000F0BC58B27047002800F0E38096F92B0BE4
:109FD000012840F0DE80292CB8BF282496F9281BE0
:109FE0008C4280F2D680A1F10F057A49734A097834
:109FF000714C772034F80269761A401E22F8026903
:10A00000A842C0F2CB800028F4D5F0BC58B270470B
:10A01000022E40F0C3800523654E00284BD0B6F9D0
:10A02000FA0E884247DA1446A4F11405A842B8BFD4
:10A03000A2F11400A6F8FA0E01F10F007728C8BFAC
:10A04000772000BFA4F10F06B042C0F2A78000281D
:10A0500000F1A4805F495C4A097832F810705B4DCA
:10A06000CF1925F81070401EB042C0F2978000282A
:10A0700000F1948032F81070CF1925F81070401E4E
:10A08000B042C0F28B80002800F1888032F8107056
:10A09000CF1925F81070401EB042C0F27F80002812
:10A0A0005FBF32F81020891825F81010401EC9D55E
:10A0B000F0BC58B2704796F9E20E022848DB96F9D8
:10A0C000DF0E002804BF96F9E00E012841D1292CAB
:10A0D000ACBF2046282096F9DD7EB84239DA96F9E1
:10A0E000DC0E0F307728C8BF772000BFA7F10F0420
:10A0F000A04253DB002851D43649334A097832F85C
:10A100001060324D8E1925F81060401EA04245DBCC
:10A11000002843D432F810608E1925F81060401ED4
:10A12000A0423BDB002839D432F810608E1925F8A4
:10A130001060401EA04231DB00285FBF32F81020C3
:10A14000891825F81010401ED0D5F0BC58B27047C1
:10A15000F8B196F9DF0E01281BD1292CB8BF2824AD
:10A1600096F9DC1E8C4214DAA1F10F051949124A46
:10A170000978124C5FF0770034F802698E19401E9E
:10A1800022F80269A84209DB0028F5D5F0BC58B2D4
:10A1900070470020A6F8FA0E28700023F0BC58B2D1
:10A1A00070470000000080BF0100803F4C6EFF1F21
:10A1B0008085FF1F00001440D283FF1FE282FF1F33
:10A1C000C284FF1FF49BFF1FF481FF1FE482FF1F67
:10A1D000099CFF1FAD77FF1F2DE9F04F064683B0A6
:10A1E00014469846012EB8BF0026DFF8E80D90F916
:10A1F0000000052880F2E883012818BF042840F0F9
:10A20000A780DFF8D40D90F9E35E00293DD0AC4281
:10A21000B4BFEF1C7727E51E80F8F85EDFF8BC0DB1
:10A22000DFF8BCAD00EB051000F108093AF91700A2
:10A2300000900AEB450402E06D1EA9F11009D9F85F
:10A240003000D9F80010401A01F028F90022DFF898
:10A25000943D01F0A3FC06468B46009834F90219A0
:10A26000401A791B90FBF1F001F018F932465B4679
:10A2700001F0F8FD01D2A845DEDB6C2000904FFA1A
:10A2800088F36AB279B25046EBE31DB190F9F80E4B
:10A29000A84200DB77252F4600E06D1EDFF8404D19
:10A2A00034F915009F2805D0AE42F6DB34F91500CD
:10A2B0009F2804D1AE4202DA6D1EF7E76D1E04EB53
:10A2C000450034F91590B0F9060034F91780A0EB79
:10A2D000090001F0E3F80022DFF8083D01F05EFC20
:10A2E000CDE90001A8EB0900791B90FBF1F001F02A
:10A2F000D5F8DDE9002301F0B5FD01D2AE42DDDB8A
:10A30000C14521DB3D46DFF8E09C09EB450000E05C
:10A310006D1E30F9021909B1AE42F9DB39F91500A9
:10A3200018B9AE42B8BF6D1EF8DB09EB45000094CA
:10A33000EA1CB0F9063012B241463846FFF7F8FB86
:10A3400022460021A81D78E100944B4600F01EBC77
:10A35000022840F09781DFF8800C002900F0BF80D0
:10A3600047467821A04680F8F81EB845DFF86C5CB7
:10A37000DFF86CAC0BDB05EB07110AEB470008318B
:10A3800051F8102B20F8022B7F1CB845F8DA05EBAA
:10A390000811BAF9EE9051F8081CA9EB0107601EEC
:10A3A0003FB205B2002F75D0C5F1770001F076F805
:10A3B00006460C46384601F071F802460B46304618
:10A3C000214601F0EBFB01F061F90746484601F038
:10A3D000C7F9394601F0DEF90146DFF80C0E01F04D
:10A3E00005FB06463846002101F054FD00F092843A
:10A3F0007624762D80F28E84204601F0B1F9314624
:10A4000001F0F4FA394601F073FA01F087F92AF8FD
:10A410001400601E04B2A54280F27C84204601F044
:10A420009FF9314601F0E2FA394601F061FA01F094
:10A4300075F92AF81400601E04B2A54280F26A84FD
:10A44000204601F08DF9314601F0D0FA394601F08D
:10A450004FFA01F063F92AF81400601E04B2A54215
:10A4600080F25884204601F07BF9314601F0BEFAB3
:10A47000394601F03DFA01F051F92AF81400601E46
:10A4800004B2A542B8DBDFF8640D4546057003B0A1
:10A49000BDE8F08F7624762D80F23C842AF8149063
:10A4A000601E04B2A542BFBF2AF81490601E04B219
:10A4B000A54280F22F842AF81490601E04B2A542AF
:10A4C00080F228842AF81490601E04B2A542E5DBCD
:10A4D000DFF8180D4546057003B0BDE8F08F90F920
:10A4E000F81E782940F0E88490F9281B1F29C0F253
:10A4F000E38490F92B2B0AB90D4607E090F92C1B49
:10A5000021B990F9290B1F28A8BF0546DFF8D0AA6A
:10A51000DFF8D49ABAF9EE8039F81500A8EB0000FC
:10A5200004B22FB2002C6AD0C7F1770000F0B6FF5A
:10A5300006468B46204600F0B1FF02460B463046E9
:10A54000594601F02BFB01F0A1F80446404601F00A
:10A5500007F9214601F01EF90146DFF88C0C01F0E5
:10A5600045FA80462046002101F094FC62D0762610
:10A57000762F5FDA304601F0F3F8414601F036FA03
:10A58000214601F0B5F901F0C9F82AF81600701E4D
:10A5900006B2B7424EDA304601F0E2F8414601F029
:10A5A00025FA214601F0A4F901F0B8F82AF81600BE
:10A5B000701E06B2B7423DDA304601F0D1F841468E
:10A5C00001F014FA214601F093F901F0A7F82AF8F6
:10A5D0001600701E06B2B7422CDA304601F0C0F801
:10A5E000414601F003FA214601F082F901F096F8A4
:10A5F0002AF81600701E06B2B742BBDB1AE07626B8
:10A60000762F17DA2AF81680701E06B2B742BFBF3F
:10A610002AF81680701E06B2B7420BDA2AF81680A6
:10A62000701E06B2B742BFBF2AF81680701E06B26F
:10A63000B742E7DB52460021E81CC0B2FFF71AFA26
:10A64000EF1C012FC0F2388409EB470017F003011B
:10A6500004D0002220F80229491EFAD1B90800F0DE
:10A660002B84002220F8022920F8022920F8022950
:10A6700020F80229491EF4D1DFF8700B057003B0F1
:10A68000BDE8F08F032840F0AB85DFF84C094FF0B0
:10A69000FF3280F8F82E002900F0E8808DF8008065
:10A6A0004FFA84F8DFF83459D5F8746705EB0810D1
:10A6B0008068301A0FFA80FABAF1000F76D0C8F12C
:10A6C000770000F0EBFE07468B46504600F0E6FEB2
:10A6D00002460B463846594601F060FA00F0D6FFB4
:10A6E000074630B201F03CF8394601F053F8014614
:10A6F000DFF8F40A01F07AF906463846002101F045
:10A70000C9FB7BD04FF0760BDFF8D4A8B8F1760FF9
:10A7100074DA584601F024F8314601F067F93946F9
:10A7200001F0E6F800F0FAFF2AF81B00ABF1010097
:10A730000FFA80FBD84561DA584601F011F831462E
:10A7400001F054F9394601F0D3F800F0E7FF2AF898
:10A750001B00ABF101000FFA80FBD8454EDA5846DA
:10A7600000F0FEFF314601F041F9394601F0C0F832
:10A7700000F0D4FF2AF81B00ABF101000FFA80FBB8
:10A78000D8453BDA584600F0EBFF314601F02EF990
:10A79000394601F0ADF800F0C1FF2AF81B00ABF11B
:10A7A00001000FFA80FBD845B3DB27E04FF0760BB2
:10A7B000DFF82C18B8F1760F80F2208021F81B60AA
:10A7C000ABF101000FFA80FBD845BFBF21F81B6039
:10A7D000ABF101000FFA80FBD8450FDA21F81B60BE
:10A7E000ABF101000FFA80FBD845BFBF21F81B6019
:10A7F000ABF101000FFA80FBD845DFDB9DF90000CB
:10A80000DFF8DC2780452BDB05EB0811896822F88F
:10A810001810A8F101010FFA81F8804520DB05EB43
:10A820000811896822F81810A8F101010FFA81F8BF
:10A83000804515DB05EB0811896822F81810A8F18E
:10A8400001010FFA81F880450ADB05EB08118968E0
:10A8500022F81810A8F101010FFA81F88045D3DA27
:10A86000DFF88809047003B0BDE8F08F90F9DC1EB2
:10A87000002900F0B58490F9DF0E002840F0B08484
:10A880004F1FDFF85857D5F8746705EB07113DB235
:10A890004968701A0FFA80FABAF1000F72D0C5F148
:10A8A000770000F0FBFD80460C46504600F0F6FDB8
:10A8B00002460B464046214601F070F900F0E6FEE4
:10A8C000804630B200F04CFF414600F063FF014685
:10A8D000DFF8140901F08AF806464046002101F02D
:10A8E000D9FA00F07B847624DFF8F4A6762D80F286
:10A8F0007584204600F034FF314601F077F8414678
:10A9000000F0F6FF00F00AFF2AF81400601E04B2FF
:10A91000A54280F26384204600F022FF314601F018
:10A9200065F8414600F0E4FF00F0F8FE2AF8140054
:10A93000601E04B2A54280F25184204600F010FF50
:10A94000314601F053F8414600F0D2FF00F0E6FE38
:10A950002AF81400601E04B2A54280F23F8420460B
:10A9600000F0FEFE314601F041F8414600F0C0FF24
:10A9700000F0D4FE2AF81400601E04B2A542B8DB31
:10A9800000F02CBC7624DFF85816762D80F2268451
:10A9900021F81460601E04B2A542BFBF21F8146004
:10A9A000601E04B2A54280F2198421F81460601E72
:10A9B00004B2A54280F2128421F81460601E04B231
:10A9C000A542E5DB00F00ABC092880F209840528CD
:10A9D00018BF082840F0E580DFF8FC0590F92F5BF0
:10A9E000002946D0AC42B4BFEF1C7727E51E80F8A3
:10A9F000F85EDFF8F495DFF8E40539F917B000EBFD
:10AA0000051009EB450600F10C0A02E06D1EAAF1E3
:10AA1000100ADAF83000DAF80010441A36F90209A0
:10AA2000ABEB0000791B90FBF1F000F037FDCDE9B6
:10AA30000001204600F032FD0022DFF8A83501F0C9
:10AA4000ADF8DDE9002301F00DFA03D2A845B8BF47
:10AA5000012CDBDB722000904FFA88F36AB279B2E6
:10AA60004846FFF723F9DFF88407057003B0BDE817
:10AA7000F08F2DB190F9F80EA842B8BF2F4603DB36
:10AA80007727772500E06D1EDFF85C9539F9150012
:10AA900020B1AE42F7DB39F9150020B9AE4202DA37
:10AAA0006D1EF8E76D1E09EB450039F91540B0F948
:10AAB000060039F91780A0EB040AA8EB0400791B03
:10AAC00090FBF1F000F0EAFCCDE90001504600F007
:10AAD000E5FC0022DFF80C3501F060F8DDE9002329
:10AAE00001F0C0F904D2AE42B8BFBAF1010FD9DB10
:10AAF000A04548DB3D46DFF8E84404EB450000E0B4
:10AB00006D1E30F902199F2902D0AE42FFF6F8AF50
:10AB100034F915009F2803D1AE42B8BF6D1EF7DB94
:10AB200004EB4500CDF80090EA1CB0F9063012B2F3
:10AB300041463846FEF7FCFF4A460021E8B2FEF7E0
:10AB400099FFEF1C012FC0F2B78104EB470017F00B
:10AB5000030104D09F2220F80229491EFAD1B90826
:10AB600000F0AA819F2220F8022920F8022920F86B
:10AB7000022920F80229491EF4D1DFF87006057079
:10AB800003B0BDE8F08FCDF8009023462AB24146CD
:10AB90003846FEF7CDFFDFF85406057003B0BDE878
:10ABA000F08F062840F08D81DFF82C04002900F09A
:10ABB000B88047467821A04680F8F81EB845DFF8EF
:10ABC0002894DFF818540CDB05EB071109EB47005C
:10ABD00011F10C0151F8102B20F8022B7F1CB84505
:10ABE000F8DA05EB0811B9F9EEA051F8041CAAEB4C
:10ABF0000107601E3FB205B2002F70D0C5F177008B
:10AC000000F04CFC06460C46384600F047FC024675
:10AC10000B463046214600F0C1FF00F037FD0746E5
:10AC2000504600F09DFD394600F0B4FD0146DFF8C6
:10AC3000B80500F0DBFE06463846002101F02AF98F
:10AC400068D07624762D65DA204600F089FD3146FD
:10AC500000F0CCFE394600F04BFE00F05FFD29F815
:10AC60001400601E04B2A54254DA204600F078FDBC
:10AC7000314600F0BBFE394600F03AFE00F04EFDD2
:10AC800029F81400601E04B2A54243DA204600F001
:10AC900067FD314600F0AAFE394600F029FE00F0BB
:10ACA0003DFD29F81400601E04B2A54232DA2046A8
:10ACB00000F056FD314600F099FE394600F018FECE
:10ACC00000F02CFD29F81400601E04B2A542BBDB85
:10ACD000DFF818054546057003B0BDE8F08F76240F
:10ACE000762D17DA29F814A0601E04B2A542BFBF62
:10ACF00029F814A0601E04B2A5420BDA29F814A0AA
:10AD0000601E04B2A542BFBF29F814A0601E04B2A1
:10AD1000A542E7DBDFF8D4044546057003B0BDE883
:10AD2000F08F90F9F81E782940F0C68090F9DC1E6B
:10AD30001F29C0F2C18090F9DF2E0AB90D4607E045
:10AD400090F9E01E21B990F9DD0E1F28A8BF054635
:10AD5000DFF89492DFF888A2B9F9EE803AF815008E
:10AD6000A8EB000004B22FB2002C6AD0C7F1770024
:10AD700000F094FB06468B46204600F08FFB02460F
:10AD80000B463046594600F009FF00F07FFC0446B0
:10AD9000404600F0E5FC214600F0FCFC0146DFF8EF
:10ADA000480400F023FE80462046002101F072F89E
:10ADB00062D07626762F5FDA304600F0D1FC41462D
:10ADC00000F014FE214600F093FD00F0A7FC29F8E6
:10ADD0001600701E06B2B7424EDA304600F0C0FCD4
:10ADE000414600F003FE214600F082FD00F096FC93
:10ADF00029F81600701E06B2B7423DDA304600F060
:10AE0000AFFC414600F0F2FD214600F071FD00F07C
:10AE100085FC29F81600701E06B2B7422CDA3046BF
:10AE200000F09EFC414600F0E1FD214600F060FD8F
:10AE300000F074FC29F81600701E06B2B742BBDBA6
:10AE40001AE07626762F17DA29F81680701E06B2D9
:10AE5000B742BFBF29F81680701E06B2B7420BDAA0
:10AE600029F81680701E06B2B742BFBF29F81680B7
:10AE7000701E06B2B742E7DBE81C4A460021C0B2AA
:10AE8000FEF7F8FDEF1C012F16DB0AEB470017F069
:10AE9000030104D09F2220F80229491EFAD1B908E3
:10AEA0000AD09F2220F8022920F8022920F802293E
:10AEB00020F80229491EF4D1CC48057003B0BDE842
:10AEC000F08F072840F08C8143484FF0FF3280F824
:10AED000F82E002900F0E280C448404D04708DF83F
:10AEE000008067B2B84605EB0810D5F870A7C068B7
:10AEF000AAEB000004B2002C78D0C7F1770000F074
:10AF0000CDFA06468B46204600F0C8FA02460B46AC
:10AF10003046594600F042FE00F0B8FB04460FFAF6
:10AF20008AF000F01DFC214600F034FC0146AE48DA
:10AF300000F05CFD82462046002100F0ABFF73D09C
:10AF40007626DFF8A490762F6EDA304600F008FC03
:10AF5000514600F04BFD214600F0CAFC00F0DEFB3C
:10AF600029F81600701E06B2B7425DDA304600F0CE
:10AF7000F7FB514600F03AFD214600F0B9FC00F025
:10AF8000CDFB29F81600701E06B2B7424CDA3046E7
:10AF900000F0E6FB514600F029FD214600F0A8FC38
:10AFA00000F0BCFB29F81600701E06B2B7423BDA6F
:10AFB000304600F0D5FB514600F018FD214600F068
:10AFC00097FC00F0ABFB29F81600701E06B2B742E2
:10AFD000BBDB29E00F9CFF1F8085FF1F8494FF1FB0
:10AFE000E482FF1F00000840F481FF1F7626DFF88F
:10AFF0009414762F80F2188021F816A0701E06B2E5
:10B00000B742BFBF21F816A0701E06B2B7420BDAD6
:10B0100021F816A0701E06B2B742BFBF21F816A0D5
:10B02000701E06B2B742E7DB9DF90000DFF854243A
:10B03000B8EB000FC0F2D48005EB0811C96822F804
:10B040001810A8F101010FFA81F88045C0F2C880FC
:10B0500005EB0811C96822F81810A8F101010FFAD0
:10B0600081F88045C0F2BC8005EB0811C96822F860
:10B070001810A8F101010FFA81F88045C0F2B080E4
:10B0800005EB0811C96822F81810A8F101010FFAA0
:10B0900081F88045D0DA03B0BDE8F08F90F9281B25
:10B0A000002900F09D8090F92B0B002840F098803B
:10B0B0004F1FDFF8D453D5F8706739014959701A1A
:10B0C0000FFA80F93DB2B9F1000F6BD0C5F17700EE
:10B0D00000F0E4F980460C46484600F0DFF90246ED
:10B0E0000B464046214600F059FD00F0CFFA80465D
:10B0F00030B200F035FB414600F04CFB01463A48C7
:10B1000000F074FC06464046002100F0C3FE65D006
:10B110007624DFF87093762D60DA204600F020FB6D
:10B12000314600F063FC414600F0E2FB00F0F6FA25
:10B1300029F81400601E04B2A5424FDA204600F040
:10B140000FFB314600F052FC414600F0D1FB00F00D
:10B15000E5FA29F81400601E04B2A5423EDA204642
:10B1600000F0FEFA314600F041FC414600F0C0FB21
:10B1700000F0D4FA29F81400601E04B2A5422DDABA
:10B18000204600F0EDFA314600F030FC414600F078
:10B19000AFFB00F0C3FA29F81400601E04B2A54208
:10B1A000BBDB1BE07624B749762D17DA21F8146053
:10B1B000601E04B2A542BFBF21F81460601E04B235
:10B1C000A5420BDA21F81460601E04B2A542BFBF8D
:10B1D00021F81460601E04B2A542E7DB0348077043
:10B1E00003B0BDE8F08F00000000EE427D10FF1FAD
:10B1F00070B4A64890F90040052C80F2A580A44BBD
:10B20000012C30D1B3F9EE40B3F9EC50AC42B8BFE9
:10B210002C46752513F1EA03B3F90060B442B8BFB8
:10B22000344633F9026C6D1EB442B8BF344633F96C
:10B23000046C6D1EB442B8BF34466D1E9B1F642D56
:10B24000EADAE4B29F2C40F01A818A1A0A2A80F2C4
:10B250001681904A92F92F2B8A4202DB6A2AC0F2A9
:10B260000E8104210AE1042C25D1B3F9EE107622D7
:10B2700013F1EC03B3F90040A142B8BF214633F902
:10B28000024C521EA142B8BF214633F9044C521E53
:10B29000A142B8BF214633F9064C521EA142B8BFA5
:10B2A0002146521E083B632AE4DAC9B29F2980F284
:10B2B000E6800221E2E0022C1ED1B3F9EE20B3F9C0
:10B2C000EC50AA42B8BF2A46B3F9EA40A242B8BF3E
:10B2D0002246B3F9E840A242B8BF2246B3F9E630AD
:10B2E0009A42B8BF1A46D2B29F2A40F0C880292994
:10B2F000C0F2C5800321C1E0032C40F0C080B3F947
:10B30000EE10762213F1EC03B3F90040A142B8BF6E
:10B31000214633F9024C521EA142B8BF214633F9EF
:10B32000044C521EA142B8BF214633F9064C521EAE
:10B33000A142B8BF2146521E083B632AE4DAC9B2D3
:10B340009F2980F29C8096E04E4B2DD1B3F9EE40C0
:10B35000B3F9EC50A542B8BF2C46752513F1EA03AA
:10B36000B3F90060A642B8BF344633F9026C6D1ED3
:10B37000A642C8BF264633F9044C6D1EB442C8BF6E
:10B3800034466D1E9B1F642DEADAE4B2002C76D1A0
:10B390008A1A0A2A73DA3F4A92F9E32E8A4201DBBB
:10B3A0006A2A6CDB082169E0082C23D1B3F9EE107E
:10B3B0007622EC33B3F900408C42B8BF214633F912
:10B3C000024C521E8C42C8BF0C46511E33F9042C4D
:10B3D000A242C8BF22464C1E33F9061C9142C8BF88
:10B3E0001146621E083B632AE4DAC9B2002946D03E
:10B3F000062143E0062C1BD1B3F9EE20B3F9EC5043
:10B40000AA42B8BF2A46B3F9EA40A242B8BF2246D0
:10B41000B3F9E840A242B8BF2246B3F9E6309A42F7
:10B42000B8BF1A46D2B252BB292928DB072125E032
:10B43000072C24D1B3F9EE107622EC33B3F9004097
:10B440008C42B8BF214633F9024C521E8C42C8BF11
:10B450000C46511E33F9042CA242C8BF22464C1E92
:10B4600033F9061C9142C8BF1146621E083B632A8D
:10B47000E4DAC9B219B1084A00211160017070BC48
:10B4800070470000F481FF1F8494FF1F0F9CFF1F73
:10B49000E482FF1F8085FF1F0820FE43010040F16A
:10B4A0000780F446404200F003F851F00041604745
:10B4B00009D0B0FA80F18840C91CC1F58461090542
:10B4C00001EBD02140057047B0B581EA030C0CF0C8
:10B4D000004C40F2FF7515EA11541DBF15EA1357D1
:10B4E000AC42AF4239E0E41923EA455343F48013F8
:10B4F000C90241F0004141EA505EC7021100A7FBBA
:10B50000020200284FF00000EEFB01204FF0000186
:10B51000E3FB072118BF42F0010240180021494116
:10B52000E3FB0E01A4F580640F0302D252004041F8
:10B53000494154F101046CDD470872F1004250F1B9
:10B54000000051EB0451A1F580115CBF41EA0C01F0
:10B55000B0BD4CEA05510020B0BD05EA1357AC421E
:10B5600014BFAF4241E050EA410E1CBF52EA430E05
:10B5700002E061460020B0BD24423C441BD15FEA9A
:10B58000070EF6D0090302BF01460020AEF1140EEB
:10B59000B1FA81F7AEEB070401FA07FE0C37C7F1E9
:10B5A000200100FA07F7C8404EEA000E23EA45538F
:10B5B00043F48013A2E733F00043B3FA83F704BFE8
:10B5C000B2FA82FE77440B3FE41BB7F1200E2FBF87
:10B5D00002FA0EF3BB40C7F1200E22FA0EFE38BF6E
:10B5E00043EA0E03BA40641C82E750EA410E14BFDE
:10B5F00052EA430E6FF000014FF4001717EB430FB0
:10B600008ABF194617EB410FB5E74CEA05510020F8
:10B61000B0BDD4F10104B4F120070FDAC4F1200762
:10B62000520828BF42F0010210FA07F501FA07F7A5
:10B63000E1BF2A43E0403843E1400FE0352C98DC7D
:10B64000C7F1200452EA400220FA07F218BF42F084
:10B65000010231FA07F0A1400A43002172F10042D1
:10B6600050F1000051EB0C01B0BD50F8041B61B16A
:10B6700050F8042BD30744BFA9F101039A18002303
:10B6800042F8043B091FFAD1EFE770474FEAF17C1B
:10B69000BCF1E04C2CBFBCF5001F11E05FEA4C0C84
:10B6A00034BFBCF17F5F2EE05FEA9C0C4FEA0C1CBC
:10B6B0004FEA3C0CC10071F100414CEB50707047F7
:10B6C000C90241EA5051C00218BF41F0010141F0E6
:10B6D00000414FEA6C50C0F10900212810D240EA25
:10B6E000CC7CCCF1200C11FA0CF070F10040CCF1C4
:10B6F000200C21FA0CF00CF0004C40EB0C007047D1
:10B700004FEACC707047490011F5001F04D84FEA8A
:10B71000CC10FF30C0057047C81770474100090EB4
:10B720007F3915D4D1F11F0114D4400007D2C001D4
:10B7300040F00040C84048BF6FF000407047C00173
:10B7400040F00040C8404CBF4FF0004040427047BE
:10B750000020704700424FF0004058BFC043704780
:10B76000002840F10980F446404200F005F850F00E
:10B7700000406047002800BF0AD0B0FA80F188403E
:10B78000D1F19D01C905020672F1004241EB102082
:10B7900070470000FF2212EAD05C1DBF12EAD153AD
:10B7A000944593422BE09C44D30780EA01021A405F
:10B7B00043EA002043EA0121A1FB0030410038BFE9
:10B7C00040007CF17F010BDBFE294ADA5B0842EA8C
:10B7D000C15153EA006373F1004C51EB10207047E4
:10B7E000D1F1080CDCF120012FDB5B0810FA01F12C
:10B7F0000B4373F1004120FA0CF05041704794451F
:10B800001CBF02EAD153934280EA010202F00042D7
:10B810001DD0400019D0490017D05BB9634514D042
:10B820000902B1FA81F39940BCEB030CC00140F06E
:10B830000040C1E70002B0FA80FC10FA0CF0B3EB54
:10B840000C0CC90141F00041B6E710007047400000
:10B850000AD0490008D010F1807F94BF11F1807F99
:10B8600002E042F0FF407047D043704790EA010F7A
:10B8700044BF81F0004100F0C1B800BF421A3CBF94
:10B88000801A89184FF0004CC0F3C752FF2A24D009
:10B89000C1F3C75313B3D21AD2F1190327DD4CEA0F
:10B8A00001214CFA03F321EA0303D140C20D4CEA13
:10B8B0000020401834BF20EA0C004CEA5000D205AA
:10B8C00053EA006373EB0C0C52EB1020420012F1B0
:10B8D000807F38BF7047C00DC0057047490212BF56
:10B8E0009A4200EB5120F8E7D2F11703D9D57047FF
:10B8F00010B5FF2313EAD0541DBF13EAD1529C4266
:10B900009A4239E0A41ADA0780EA0103134042EAB6
:10B91000012142EA0020421A3CBF641E01EB4202B0
:10B92000090AB2FBF1FE01FB1E221202B2FBF1F08A
:10B9300001FB10226EF30F201202B2FBF1FE4EEA61
:10B9400000207F3406DDFE2C24DA53EA500050EB51
:10B95000C45010BDD4F1020401FB1E2240F08071DE
:10B96000192C1DDC21FA04F0C4F12004A14011437C
:10B9700071F10042584110BD9C421ABF03EAD152F6
:10B980009A420FE080EA010E0EF00043400004D01E
:10B99000490016D143F0FF4010BD490008BFD34312
:10B9A000180010BD9C4205D1D21AF7D001F0004119
:10B9B000484010BD4A0212BF0846484000F000400F
:10B9C00010BD4AB90902B1FA81F2914044B1A418FC
:10B9D000C00140F000409EE7C90141F000415242E1
:10B9E0000002B0FA80F4A040141B94E790EA010F23
:10B9F00044BF81F00041FFF741BF00BF431A4FF041
:10BA000000423EBF5340C01AC91800BFD3095FEAC5
:10BA1000D05C13EB400F34BFB3EB410F40E07CEB45
:10BA2000D1530CD342EA012122D8D1EB402009D3D3
:10BA3000400A28BF5FEA500140EBCC507047401AE3
:10BA400015D04002B0FA80F2521C9040400A4FEAF2
:10BA50003C23B3EB026384BF00EB730007E040F4C8
:10BA600000001A16DB07C2F10102D04018437047EC
:10BA7000182BFCDC31FA03F202FA03F3591A38BF2F
:10BA800042F00102D2EB40203CBF4000ACF1010C7F
:10BA90005FEACC5CC20572F100414CEB502070476C
:10BAA00013EB400F0FD24B0009D0ACEBD153022B5C
:10BAB00003DB4902172BDDDD70479143401A430039
:10BAC000D5D10020704713EB410FD0D36FF00000A9
:10BAD000704700004FF0807C1CEB400F94BF1CEBC4
:10BAE000410F05E040EA010C5FEA4C0C01D28142B3
:10BAF000704718BF884270474FF0807C1CEB400FA6
:10BB000094BF1CEB410F05E040EA010C5FEA4C0CCE
:10BB100001D28842704718BF81427047002200F06E
:10BB2000C7B9000062B38B0708D0521E11F8013B61
:10BB300000F8013B00F024808B07F6D1830740F02A
:10BB4000208000BF103A07D330B4B1E83810103A63
:10BB5000A0E83810F9D230BC530724BFB1E8081070
:10BB6000A0E8081044BF51F8043B40F8043BD2075A
:10BB700024BF31F8022B20F8022B44BF0B7803704E
:10BB80007047083A07D3B1E80810083A40F8043B78
:10BB900040F804CBF7D25307E4E70000F0B540F2D9
:10BBA000FF7581EA030C0CF0004C15EA11541DBF1F
:10BBB00015EA1357AC42AF42E5E0BC41C1F31301B3
:10BBC000C3F31303801A994143F4801304D2641E13
:10BBD0004000494180185941C90241EA5051B1FB26
:10BBE000F3F603FB1611A2FB0675D7EBC020A941A3
:10BBF00002D2761E80185941C90241EA5051B1FB68
:10BC0000F3FE03FB1E11A2FB0E75D7EBC020A9416A
:10BC100003D2AEF1010E80185941890241EA9051D8
:10BC2000760546EA8E2EB1FBF3F603FB1611A2FB56
:10BC30000675D7EB8020A94102D2761E80185941A3
:10BC4000C90241EA50514EEA060EB1FBF3F603FB7E
:10BC50001611A2FB0675D7EBC020A94102D2761EB1
:10BC600080185941C90241EA5051B1FBF3F703FB77
:10BC70001711A2FB0735D3EBC020A94167F10007DC
:10BC80000CBF004247F0010766F3D5274FEA1E318B
:10BC9000B80814F5806412DDBD0775F1004250EB61
:10BCA0000E5051EB045111F5801F5CBF41EA0C01AD
:10BCB000F0BD4CF07F6141F0E0410020F0BDBD07D8
:10BCC0006D0840EA0E5041F48011D4F10104B4F142
:10BCD00020060ADAC4F120060200E04001FA06F369
:10BCE000E1401843B24015430EE0342C13DCC6F19A
:10BCF000200445EA40056D0820FA06F2154321FAB2
:10BD000006F0A1400D43002175F1004250F1000002
:10BD100051EB0C01F0BD00205FEA0C01F0BDCFB982
:10BD200092185B41B3FA83F704BFB2FA82F6BF19E7
:10BD30000B3FB7F120062FBF02FA06F3BB40C7F155
:10BD4000200622FA06F638BF3343BA401CB1E41984
:10BD5000641E33E77F4231F00041B1FA81F404BF41
:10BD6000B0FA80F6A4190B3CB4F120062FBF00FAFC
:10BD700006F1A140C4F1200620FA06F638BF31438F
:10BD8000A0403C1B1AE7AC421ABF05EA1357AF426A
:10BD900012E050EA41061CBF52EA4306BFE750EAF0
:10BDA0004107304661461CBF41EA0551F0BD52EAE9
:10BDB000430C08BFC143F0BD00204FF4001616EB42
:10BDC000410F98BF16EB430F08BF16EB410F24BF7E
:10BDD000C14305E016EB430F0CBF61464CEA055129
:10BDE000F0BD00005FF0FF0C1CEAD05114BF6145AC
:10BDF00006E0C110400721F0E04101F160517047B9
:10BE000079B900F0004100020AD0B0FA80FC00FAD3
:10BE10000CF001F16051A1EB0C5101EBD021400578
:10BE2000704741020CBF40F4E0016FF000010020B8
:10BE3000704700004FF4001C1CEB410F94BF1CEB3B
:10BE4000430F09E041EA030C50EA4C0C52EA0C0C97
:10BE500003D28B4208BF8242704714BF994290427E
:10BE6000704700004FF4001C1CEB410F94BF1CEB0B
:10BE7000430F09E041EA030C50EA4C0C52EA0C0C67
:10BE800003D2994208BF9042704714BF8B4282424E
:10BE90007047000040EA010C5FEA4C0C07D0884272
:10BEA00005D14FEA400C1CF1807F98BF804270475B
:10BEB00000B500BF130096469446103928BFA0E88D
:10BEC0000C50FAD85FEA417C28BF0CC048BF40F84C
:10BED000042BC90728BF20F8022B48BF00F8012B0C
:10BEE00000BD0000DFF8881A00220A608A6000F0B6
:10BEF0008002531E9B41DB43DB0FCB6000220A61B3
:10BF0000400001220A6100F08002531E9B41DB4386
:10BF1000DB0FCB6000220A61400001220A6100F0C1
:10BF20008002531E9B41DB43DB0FCB6000220A6182
:10BF3000400001220A6100F08002531E9B41DB4356
:10BF4000DB0FCB6000220A61400001220A6100F091
:10BF50008002531E9B41DB43DB0FCB6000220A6152
:10BF6000400001220A6100F08002531E9B41DB4326
:10BF7000DB0FCB6000220A61400001220A6100F061
:10BF80008002531E9B41DB43DB0FCB6000220A6122
:10BF9000400601220A61020E521E9241D243D20F84
:10BFA000CA60002008610120086108607047DFF85E
:10BFB000C01900220A6001228A6000F08002531E2C
:10BFC0009B41DB43DB0FCB6000220A614000012272
:10BFD0000A6100F08002531E9B41DB43DB0FCB6004
:10BFE00000220A61400001220A6100F08002531E13
:10BFF0009B41DB43DB0FCB6000220A614000012242
:10C000000A6100F08002531E9B41DB43DB0FCB60D3
:10C0100000220A61400001220A6100F08002531EE2
:10C020009B41DB43DB0FCB6000220A614000012211
:10C030000A6100F08002531E9B41DB43DB0FCB60A3
:10C0400000220A61400001220A6100F08002531EB2
:10C050009B41DB43DB0FCB6000220A6140060122DB
:10C060000A61020E521E9241D243D20FCA600020D2
:10C0700008610120086108607047DFF8F4180023A8
:10C080000B60020A01238B6002F08003B3F1010C04
:10C090006CEB0C0C6FEA0C0C4FEADC7CC1F80CC0AA
:10C0A00000230B61520001230B6102F08003B3F106
:10C0B000010C6CEB0C0C6FEA0C0C4FEADC7CC1F849
:10C0C0000CC000230B61520001230B6102F08003BE
:10C0D000B3F1010C6CEB0C0C6FEA0C0C4FEADC7C3E
:10C0E000C1F80CC000230B61520001230B6102F068
:10C0F0008003B3F1010C6CEB0C0C6FEA0C0C4FEAF3
:10C10000DC7CC1F80CC000230B61520001230B61E1
:10C1100002F08003B3F1010C6CEB0C0C6FEA0C0C19
:10C120004FEADC7CC1F80CC000230B6152000123F4
:10C130000B6102F08003B3F1010C6CEB0C0C6FEAA5
:10C140000C0C4FEADC7CC1F80CC000230B615200E0
:10C1500001230B6102F08003B3F1010C6CEB0C0CBA
:10C160006FEA0C0C4FEADC7CC1F80CC000230B61B9
:10C17000520601230B61130E5B1E9B41DB43DB0F59
:10C18000CB6000220A6101220A610A6000220A6073
:10C1900001228A6000F08002531E9B41DB43DB0FCB
:10C1A000CB6000220A61400001220A6100F0800297
:10C1B000531E9B41DB43DB0FCB6000220A61400032
:10C1C00001220A6100F08002531E9B41DB43DB0F1A
:10C1D000CB6000220A6101220A61400000F0800267
:10C1E000531E9B41DB43DB0FCB6000220A61400002
:10C1F00001220A6100F08002531E9B41DB43DB0FEA
:10C20000CB6000220A61400001220A6100F0800236
:10C21000531E9B41DB43DB0FCB6000220A614000D1
:10C2200001220A6100F08002531E9B41DB43DB0FB9
:10C23000CB6000220A61400601220A61020E521EF2
:10C240009241D243D20FCA600020086101200861E8
:10C250000860704710B5002201214A2001F0ECFC73
:10C26000002201214C2001F0E7FC002201214D2099
:10C2700001F0E2FC002201214E2001F0DDFC002251
:10C2800001214B2001F0D8FCDFF8E446002060607B
:10C29000962001F06DFD01206060962001F068FDA0
:10C2A000CB20FFF71FFE3920FFF781FE2C20FFF780
:10C2B0007EFE0020FFF77BFE3420FFF778FE022091
:10C2C000FFF775FECF20FFF70DFE0020FFF76FFE92
:10C2D000C120FFF76CFE3020FFF769FEE820FFF772
:10C2E00001FE8520FFF763FE0020FFF760FE782047
:10C2F000FFF75DFEEA20FFF7F5FD0020FFF757FE90
:10C300000020FFF754FEED20FFF7ECFD6420FFF75F
:10C310004EFE0320FFF74BFE1220FFF748FE812060
:10C32000FFF745FEF720FFF7DDFD2020FFF73FFE7A
:10C3300000202060A0600120E0600020206101203A
:10C340002061E06000202061012020610020E06089
:10C350002061012020610020E06020610120206137
:10C360000020E0602061012020610020E060206169
:10C37000012020610020E060206101202061002078
:10C38000E06020610120206120602320FFF70FFE84
:10C3900000202060A0600120E060002020610120DA
:10C3A0002061E06000202061012020610020E06029
:10C3B0002061012020610020E060206101202061D7
